S00E00004155544F4E432E737265634C
S11300000C942A000C94B8020C94E1020C940A0398
S11300100C9447000C9447000C9413080C94DB07D1
S11300200C9447000C94A1070C9442070C94070706
S11300300C9447000C9447000C9447000C94470020
S11300400C9447000C9447000C9447000C94470010
S11300500C94470011241FBECFE5D8E0DEBFCDBF0E
S113006011E0A0E6B0E0E6E9F4E102C005900D92EB
S1130070A034B107D9F721E0A0E4B1E001C01D929A
S1130080AE35B207E1F70E9444050C94490A0C947A
S113009000000E947A080E9420040E94A5030E9486
S11300A0990041E067E083E00E940F0141E063E0D2
S11300B080E00E940F0141E062E083E00E940F01B2
S11300C008958230A1F028F4882361F1813031F061
S11300D008958330A9F08430E1F0089561E081E06F
S11300E00E94B80061E082E00E94B800089562E0D6
S11300F081E00E94B80062E082E00E94B8000895A6
S113010062E081E00E94B80061E082E00E94B800F1
S1130110089561E081E00E94B80062E082E00E94FC
S1130120B800089581E00E94FE0082E00E94FE0073
S1130130089541E064E083E00E940F0141E065E03E
S113014083E00E940F0141E063E082E00E940F011E
S113015041E064E082E00E940F0141E065E082E05A
S11301600E940F0141E066E082E00E940F010895C1
S1130170CF93C62F813019F0823001F13DC041E0A8
S113018064E083E00E948501C13059F441E063E0FA
S113019082E00E94850140E064E082E00E948501E3
S11301A02BC0C23049F540E063E082E00E94850143
S11301B041E064E082E00E9485011EC041E065E008
S11301C083E00E948501C13059F441E065E082E09A
S11301D00E94850140E066E082E00E9485010CC037
S11301E0C23051F440E065E082E00E94850141E0C4
S11301F066E082E00E948501CF910895813019F074
S1130200823039F0089540E064E083E00E94850183
S1130210089540E065E083E00E94850108958430FC
S113022008F072C0683008F06FC0423008F06CC04B
S1130230813001F130F08230B1F1833009F44CC0E7
S11302400895413059F42AB381E090E002C0880F48
S1130250991F6A95E2F7822B8ABB08952AB381E03D
S113026090E002C0880F991F6A95E2F78095822377
S11302708ABB0895413059F427B381E090E002C06D
S1130280880F991F6A95E2F7822B87BB089527B3DD
S113029081E090E002C0880F991F6A95E2F780958B
S11302A0822387BB0895413059F424B381E090E060
S11302B002C0880F991F6A95E2F7822B84BB0895C8
S11302C024B381E090E002C0880F991F6A95E2F799
S11302D08095822384BB0895413059F421B381E091
S11302E090E002C0880F991F6A95E2F7822B81BBC8
S11302F0089521B381E090E002C0880F991F6A95A8
S1130300E2F78095822381BB0895843008F072C09F
S1130310683008F06FC0423008F06CC0813001F1E1
S113032030F08230B1F1833009F44CC0089541308B
S113033059F42BB381E090E002C0880F991F6A95AD
S1130340E2F7822B8BBB08952BB381E090E002C0CF
S1130350880F991F6A95E2F7809582238BBB0895D5
S1130360413059F428B381E090E002C0880F991F0E
S11303706A95E2F7822B88BB089528B381E090E068
S113038002C0880F991F6A95E2F78095822388BB83
S11303900895413059F425B381E090E002C0880FFC
S11303A0991F6A95E2F7822B85BB089525B381E0F6
S11303B090E002C0880F991F6A95E2F78095822326
S11303C085BB0895413059F422B381E090E002C026
S11303D0880F991F6A95E2F7822B82BB089522B396
S11303E081E090E002C0880F991F6A95E2F780953A
S11303F0822382BB0895843008F04EC0683008F030
S11304004BC04115510509F447C08130B1F028F0C3
S1130410823019F1833089F1089589B390E002C0E4
S1130420959587956A95E2F780FF04C081E0FA010B
S113043080830895FA011082089586B390E002C083
S1130440959587956A95E2F780FF04C081E0FA01EB
S113045080830895FA011082089583B390E002C066
S1130460959587956A95E2F780FF04C081E0FA01CB
S113047080830895FA011082089580B390E002C049
S1130480959587956A95E2F780FF04C081E0FA01AB
S113049080830895FA0110820895813061F120F07B
S11304A0823009F44FC00895611107C085B7816097
S11304B085BF85B7826085BF1AC0613039F485B7BE
S11304C08E7F85BF85B7826085BF11C0623039F4E5
S11304D085B78E7F85BF85B78D7F85BF08C06330A4
S11304E031F485B7816085BF85B78D7F85BF8BB7B4
S11304F080648BBF0895611107C085B7846085BF90
S113050085B7886085BF1AC0613039F485B78B7FA1
S113051085BF85B7886085BF11C0623039F485B75F
S11305208B7F85BF85B7877F85BF08C0633031F473
S113053085B7846085BF85B7877F85BF8BB78068A3
S11305408BBF0895611104C084B7806484BF05C063
S1130550613019F484B78F7B84BF8BB780628BBF03
S11305600895009721F090934501809344010895E4
S11305701F920F920FB60F9211242F933F934F9314
S11305805F936F937F938F939F93AF93BF93EF93F7
S1130590FF93E0914401F0914501309709F00995EA
S11305A0FF91EF91BF91AF919F918F917F916F9147
S11305B05F914F913F912F910F900FBE0F901F901D
S11305C018951F920F920FB60F9211242F933F93F9
S11305D04F935F936F937F938F939F93AF93BF9347
S11305E0EF93FF93E0914201F0914301309709F0BA
S11305F00995FF91EF91BF91AF919F918F917F9159
S11306006F915F914F913F912F910F900FBE0F907B
S11306101F9018951F920F920FB60F9211242F93CB
S11306203F934F935F936F937F938F939F93AF9376
S1130630BF93EF93FF93E0914001F0914101309714
S113064009F00995FF91EF91BF91AF919F918F911F
S11306507F916F915F914F913F912F910F900FBEBA
S11306600F901F9018958FB780688FBF0895CF9310
S1130670C82F80FF06C041E064E080E00E9485014D
S113068005C040E064E080E00E948501C1FF06C02F
S113069041E065E080E00E94850105C040E065E03E
S11306A080E00E948501C2FF06C041E066E080E070
S11306B00E94850105C040E066E080E00E9485015B
S11306C0C3FF06C041E067E080E00E94850105C0E9
S11306D040E067E080E00E948501CF910895CF93C8
S11306E0C82F40E061E081E00E94850140E062E0C3
S11306F081E00E9485018C2F82958F700E943703C0
S113070041E063E081E00E9485018FE99FE0019769
S1130710F1F700C0000040E063E081E00E94850141
S11307208C2F0E94370341E063E081E00E94850141
S11307308FE99FE00197F1F700C0000040E063E01B
S113074081E00E948501CF9108952FE785EB91E028
S1130750215080409040E1F700C0000040E061E09B
S113076081E00E94850140E062E081E00E94850111
S113077082E00E94370341E063E081E00E9485014A
S11307808FE99FE00197F1F700C0000040E063E0CB
S113079081E00E94850188E20E946F0390EF9A95A0
S11307A0F1F78CE00E946F0320EF2A95F1F781E0C6
S11307B00E946F038FE39FE10197F1F700C00000EF
S11307C086E00E946F038FE39FE10197F1F700C079
S11307D000000895CF93C82F41E061E081E00E94BA
S11307E0850140E062E081E00E9485018C2F8295C2
S11307F08F700E94370341E063E081E00E9485012D
S11308008FE99FE00197F1F700C0000040E063E04A
S113081081E00E9485018C2F0E94370341E063E050
S113082081E00E9485018FE99FE00197F1F700C004
S1130830000040E063E081E00E948501CF910895CB
S113084041E064E080E00E940F0141E065E080E067
S11308500E940F0141E066E080E00E940F0141E048
S113086067E080E00E940F0141E061E081E00E94C6
S11308700F0141E062E081E00E940F0141E063E08A
S113088081E00E940F01089581E00E946F038FE3CD
S11308909FE10197F1F700C000000895813039F419
S11308A0803168F480E8860F0E946F0308958230D7
S11308B031F4603120F480EC860F0E946F030895B8
S11308C0CF92DF92EF92FF921F93CF93DF93EC01CD
S11308D0892B19F467C09F5F01C090E0FE01E90F06
S11308E0F11D20812111F7CF913178F030E080E1C2
S11308F0FE01E80FF11D2081203219F03F5F815085
S1130900F7CF913110F03031E9F4913268F015C02D
S1130910103121F460E082E00E944E04F7018081EE
S11309200E94EA031F5F01C010E07E01E10EF11C8A
S1130930F70180818111ECCF35C081E690E00E94FF
S1130940600430C0E12C80E1FE01E80FF11D20813C
S1130950203219F0E3948150F7CFF12C9701290F3D
S1130960311DC9010197819784F018C0C701810F17
S1130970911D419721F460E082E00E944E04F6014B
S113098080810E94EA031F5F01C010E06E01C10E66
S1130990D11CF60180818111E9CF04C081E690E089
S11309A00E946004DF91CF911F91FF90EF90DF9040
S11309B0CF900895CF92DF92EF92FF920F931F93FF
S11309C08B019C01672B682B692B49F580E30E94FE
S11309D0EA0345C0DC01CB01880F991FAA1FBB1F86
S11309E06C017D01CC0CDD1CEE1CFF1CCC0CDD1C51
S11309F0EE1CFF1CC80ED91EEA1EFB1EC901B8015D
S1130A002AE030E040E050E00E94270A6C0D7D1D92
S1130A108E1D9F1D022F132F242F352F04C061E03C
S1130A2070E080E090E0011511052105310591F693
S1130A302AE030E040E050E00E94270AE22EF32E44
S1130A40042F152F80E3860F0E94EA036E2D7F2D5D
S1130A50802F912F613071058105910549F71F9110
S1130A600F91FF90EF90DF90CF90089580E00E9467
S1130A7061000E94440463E081E00E944E048CE71C
S1130A8090E00E946004FFCFCF93DF93CDB7DEB731
S1130A902C970FB6F894DEBF0FBECDBF0E9449005D
S1130AA00E94330386E395E00E94B10261E080E096
S1130AB00E944D0286E890E00E94600460E082E0BB
S1130AC00E944E0486E990E00E9460042FEF83EDBB
S1130AD090E3215080409040E1F700C000000E9464
S1130AE0440485EA90E00E9460042FEF83ED90E3D4
S1130AF0215080409040E1F700C000000E9444046F
S1130B0085EB90E00E94600460E082E00E944E0465
S1130B1084EC90E00E9460042FEF83ED90E3215079
S1130B2080409040E1F700C000000E94440484ED3E
S1130B3090E00E94600460E082E00E944E0485EE32
S1130B4090E00E9460042FEF83ED90E321508040F9
S1130B509040E1F700C000000E944404CE010196D9
S1130B600E949108FDC081E00E9461000E9444043B
S1130B70CE0101960E94910886EF90E00E946004E5
S1130B8069817A818B819C810E94DA048AE091E0F8
S1130B900E9460048EE10E94F7062FEF80E792E046
S1130BA0215080409040E1F700C0000080E00E94A6
S1130BB061002FEF81EE94E0215080409040E1F7F6
S1130BC000C00000CE0105960E9491080E944404D2
S1130BD086EF90E00E9460046D817E818F8198850C
S1130BE00E94DA048AE091E00E94600481E00E949D
S1130BF0610080E00E94F7062FEF80E792E0215029
S1130C0080409040E1F700C0000080E00E94610055
S1130C102FEF81EE94E0215080409040E1F700C036
S1130C200000CE0101960E9491080E94440486EFC0
S1130C3090E00E94600469817A818B819C810E948A
S1130C40DA048AE091E00E94600481E00E9461007D
S1130C5082EE0E94F7062FEF80E792E02150804059
S1130C609040E1F700C0000080E00E9461002FEF97
S1130C7081EE94E0215080409040E1F700C00000F4
S1130C80CE0109960E9491080E94440486EF90E0E8
S1130C900E94600469857A858B859C850E94DA04AC
S1130CA08AE091E00E94600480E00E94F7068D8152
S1130CB09E81AF81B88549855A856B857C8584176B
S1130CC09507A607B707E0F009811A812B813C81BB
S1130CD080179107A207B30798F083E00E94610090
S1130CE00E94440484E191E00E9460042FEF85EAAD
S1130CF09EE0215080409040E1F700C0000020C0F9
S1130D00481759076A077B07D8F089819A81AB8114
S1130D10BC81481759076A077B0790F084E00E945A
S1130D2061000E94440485E291E00E9460042FEF78
S1130D3085EA9EE0215080409040E1F700C0000029
S1130D4080E00E9461002FEF83EC99E02150804005
S1130D509040E1F700C00000CE0101960E94910886
S1130D6089819A81AB81BC814E97A105B10508F0B8
S1130D70FACECE0101960E94910830C082E00E9412
S1130D8061000E944404CE0101960E94910886EFFE
S1130D9090E00E94600469817A818B819C810E9429
S1130DA0DA0485E391E00E9460042FEF83EC99E07C
S1130DB0215080409040E1F700C0000080E00E9494
S1130DC06100CE0101960E9491082FEF89E698E117
S1130DD0215080409040E1F700C0000089819A8151
S1130DE0AB81BC814E97A105B10540F2B7CECF933C
S1130DF0C82F0E9461088C2FCC0F990B815A9F4FEA
S1130E00880F0E9478080E946E08CF9108951F925F
S1130E100F920FB60F9211242F933F934F935F932A
S1130E206F937F938F939F93AF93BF93EF93FF93AE
S1130E3080915001909151010196909351018093BA
S1130E405001813D934069F480E782BF10925101C3
S1130E5010925001E0915C01F0915D01309709F02E
S1130E600995FF91EF91BF91AF919F918F917F91E0
S1130E706F915F914F913F912F910F900FBE0F9003
S1130E801F9018951F920F920FB60F9211242F9353
S1130E903F934F935F936F937F938F939F93AF93FE
S1130EA0BF93EF93FF9380914E0190914F01019670
S1130EB090934F0180934E01883E934059F41092D1
S1130EC04F0110924E01E0915A01F0915B0130976D
S1130ED009F00995FF91EF91BF91AF919F918F9187
S1130EE07F916F915F914F913F912F910F900FBE22
S1130EF00F901F9018958FB58E7F8FBD8FB58D7F06
S1130F008FBD8EB5877F8EBD8EB58F7E8EBD1DBC89
S1130F101CBC89B7846089BF08958EB581608EBD7D
S1130F208EB582608EBD8EB58B7F8EBD08958EB5D5
S1130F308E7F8EBD8EB58D7F8EBD8EB58B7F8EBD23
S1130F4008951F920F920FB60F9211242F933F937F
S1130F504F935F936F937F938F939F93AF93BF93BD
S1130F60EF93FF9380914C0190914D0101969093E2
S1130F704D0180934C01049769F480E782BF10927D
S1130F804D0110924C01E0915801F09159013097B4
S1130F9009F00995FF91EF91BF91AF919F918F91C6
S1130FA07F916F915F914F913F912F910F900FBE61
S1130FB00F901F9018951F920F920FB60F92112445
S1130FC02F933F934F935F936F937F938F939F934D
S1130FD0AF93BF93EF93FF9380914A0190914B019C
S1130FE0019690934B0180934A010A9759F4109209
S1130FF04B0110924A01E0915601F091570130974C
S113100009F00995FF91EF91BF91AF919F918F9155
S11310107F916F915F914F913F912F910F900FBEF0
S11310200F901F9018951F920F920FB60F921124D4
S11310302F933F938F939F9386B597B590934901D0
S113104080934801209160002130A1F42091460151
S113105030914701821B930B880F991F880F991FAA
S113106090935301809352018EB58F7B8EBD109265
S1131070600016C0211114C020914601309147012F
S1131080821B930B880F991F880F991F909355010A
S1131090809354018EB580648EBD81E0809360009E
S11310A080914801909149019093470180934601B2
S11310B09F918F913F912F910F900FBE0F901F9092
S11310C0189585B5886085BD85B5806485BD85B571
S11310D08F7E85BD85B5806285BD089585B58E7F7B
S11310E085BD85B58D7F85BD85B5846085BD089535
S11310F083BD089541E061E082E00E940F0140E079
S113110061E082E00E94850140E060E082E00E94AC
S11311100F0140E060E082E00E9485010E947B07AD
S11311200895CF92DF92EF92FF920F931F93CF9384
S1131130DF931F92CDB7DEB78C011DBC1CBCAE0182
S11311404F5F5F4F60E082E00E94FB0141E061E09D
S113115082E00E94850185E38A95F1F7000040E072
S113116061E082E00E94850107C0AE014F5F5F4FDE
S113117060E082E00E94FB0189818823B1F399F148
S11311800E948D07AE014F5F5F4F60E082E00E94D6
S1131190FB0107C0AE014F5F5F4F60E082E00E9439
S11311A0FB0189818111F6CFCCB4DDB4E12CF12CA3
S11311B00E949707C701B601660F771F881F991F02
S11311C0660F771F881F991F0E942C0926E933E4B4
S11311D04BE85CE30E9492090E94FD08F8016083D9
S11311E07183828393830F90DF91CF911F910F912D
S11311F0FF90EF90DF90CF9008950E94710988F0DE
S11312009F5798F0B92F9927B751B0F0E1F0660FC6
S1131210771F881F991F1AF0BA95C9F714C0B13007
S113122091F00E948B09B1E008950C948B09672F0B
S1131230782F8827B85F39F0B93FCCF38695779536
S11312406795B395D9F73EF490958095709561951F
S11312507F4F8F4F9F4F0895E89409C097FB3EF44A
S113126090958095709561957F4F8F4F9F4F9923EF
S1131270A9F0F92F96E9BB279395F695879577956D
S11312806795B795F111F8CFFAF4BB0F11F460FF2D
S11312901BC06F5F7F4F8F4F9F4F16C0882311F085
S11312A096E911C0772321F09EE8872F762F05C099
S11312B0662371F096E8862F70E060E02AF09A9534
S11312C0660F771F881FDAF7880F9695879597F929
S11312D0089557FD9058440F551F59F05F3F71F022
S11312E04795880F97FB991F61F09F3F79F0879589
S11312F00895121613061406551FF2CF4695F1DF12
S113130008C0161617061806991FF1CF86957105A1
S1131310610508940895E894BB2766277727CB01D5
S113132097F908950E94A5090C94160A0E94080AC8
S113133038F00E940F0A20F0952311F00C94FF0955
S11313400C94050A11240C948C090E94690970F309
S1131350959FC1F3950F50E0551F629FF001729F56
S1131360BB27F00DB11D639FAA27F00DB11DAA1F65
S1131370649F6627B00DA11D661F829F2227B00DB2
S1131380A11D621F739FB00DA11D621F839FA00D3D
S1131390611D221F749F3327A00D611D231F849F8D
S11313A0600D211D822F762F6A2F11249F575040E4
S11313B09AF0F1F088234AF0EE0FFF1FBB1F661F5F
S11313C0771F881F91505040A9F79E3F510580F028
S11313D00C94FF090C948C095F3FE4F3983ED4F31A
S11313E0869577956795B795F795E7959F5FC1F7CC
S11313F0FE2B880F911D9695879597F9089597F977
S11314009F6780E870E060E008959FEF80EC0895A6
S113141000240A94161617061806090608950024CF
S11314200A9412161306140605060895092E039449
S1131430000C11F4882352F0BB0F40F4BF2B11F4BD
S113144060FF04C06F5F7F4F8F4F9F4F0895A1E2ED
S11314501A2EAA1BBB1BFD010DC0AA1FBB1FEE1F2A
S1131460FF1FA217B307E407F50720F0A21BB30B75
S1131470E40BF50B661F771F881F991F1A9469F7F1
S113148060957095809590959B01AC01BD01CF014D
S10914900895F894FFCF5B
S1131496014E6F20537061636520546F205072694A
S11314A66E7420796F757220747874005468616E56
S11314B66B20796F7500204175746F6E6F6D6F7553
S11314C67320436172002046696E616C2050726F0E
S11314D66A656374002047726F7570204D656D628E
S11314E66572733A002D416D6D6172204D61686DB0
S11314F66F7564002D4D61686D6F75642054616865
S11315066F756E002D4D6F68616D656420456C5373
S113151661796564002D4D6F68616D6D6564204B5E
S113152668616C6964004E656172657374206F62EC
S11315366A2E2061667465723A0020636D2028461F
S113154657442900526F7461746520526967687440
S1131556202D2D3E00526F74617465204C656674AF
S1131566203C2D2D0020636D20284261636B2900E9
S9030000FC
